:10032700FEFDFBF770617373776F72643A202020CC
:1003370020202020003D3D3D436F646564204C6FC5
:10034700636B3D3D3D002020202020636F72726566
:100357006374202020200020202020202065727236
:100367006F72202020202000202020202020706174
:100377007373202020202020002020202020206FA1
:1003870070656E202020202020005365744E65770D
:10039700576F7264456E61626C6500696E70757443
:1003A7003A2020202020202020202000526573653D
:1003B7007450617373776F72644F4B2000496E6995
:1003C700742070617373776F72642E2E2E006572BE
:1003D700726F722C74727920616761696E2100698E
:1003E7006E70757420616761696E2020202020007F
:0C03F700000000000000010301040200EF
:1008D200C103C100C102C1010610000000000000F6
:0308E200011600FC
:0C087400C2A1120880D2A1120880C2A10B
:0E0880007FB07E15EF1FAC0670011E4C70F6A7
:01088E002247
:10088F007D05AC051DEC60107E1C7F65EF1FAA0671
:08089F0070011E4A60EC80F4B8
:0108A700222E
:1008A800EF1FAA0670011E4A600BE4FDEDC3947D9C
:0508B80050EE0D80F779
:0108BD002218
:05092A0012092FD2B4F8
:05092F000000000022A1
:0C091200D2B5D2B412092FC2B502092FD1
:0C091E00C2B5D2B412092FD2B502092FC5
:0808E6001209127FA01208554F
:0808EE00C2B512092AC2B422AE
:08000300D2B512092AC2B42291
:100855007E08AD07C2B412092FED30E704D2B5808A
:0E08650002C2B5D2B4EF25E0FDFFDEE6C2B45C
:010873002262
:10083200E4FFFE7D08D2B5C2B412092A30B50543E1
:10084200070180035307FEED146005EF25E0FEFF6C
:02085200DDE5E2
:010854002281
:0A06B4007BFF7A0379F7752B06FD32
:0206BE008D2A83
:1006C0008B2C8A2D892EE4FCECC3952B502F12081D
:1006D000E6E52A2CFF1208551208EEAB2CAA2DA92C
:1006E0002E8C827583001205EDFF1208551208EE5C
:0D06F00012091E7F147E001208A80C80CB9A
:0106FD0022DA
:020746008D2AFA
:100748008B2C8A2D892EE4FCECC3952B503512088E
:10075800E6E52A2CFF1208551208EE1209127FA1AD
:100768001208551208EE120832AB2CAA2DA92E8CAD
:1007780082758300EF12061AC2B412000312091E12
:030788000C80C51D
:01078B00224B
:10080300C2A68F807F017E00120814D2A77F017ECB
:0108130000E4
:10081400D3EF9400EE940040147D6E7C00ED1D70C7
:0D082400011CED4C70F7EF1F70E61E80E325
:0108310022A4
:05090500E52424C6FFFB
:08090A00C2A5120803C2A722D6
:0708F600E52690035E93FF6D
:0808FD00D2A5120803C2A722D4
:1008BE007F3812090A7F0C12090A7F0612090A7F75
:0408CE000102090A10
:10056400EF12063C059C1105B01205C41405D818F9
:1005740005A12105B52205C92405DD2805A64105E7
:10058400BA4205CE4405E24805AB8105BF8205D3D6
:100594008405E788000005EA752501804975250270
:1005A4008044752503803F752541803A7525048074
:1005B400357525058030752506802B7525428026E6
:1005C4007525078021752508801C752509801775F8
:1005D4002543801275252A800DE4F52580087525AC
:0805E400238003752544AF25B7
:0105EC0022EC
:100662007590F0E59054F064F0604412088012082E
:1006720080E59054F064F06027E59064F0FBE4FFBD
:100682008016EFC39404501BE59054F064F06006AA
:10069200E590F4FD800D0FEF90032793F59080E233
:1006A2007F0022E59054F0FFBFF0F8EB4DFF227F70
:0106B2000047
:0106B3002224
:08093D00C2A1120880D2A12220
:06094D00120874D2A12281
:09093400120874120879D2A12204
:10078C003003157FC012090AE4FBEB90038093FF42
:10079C001208FD0BBB10F322E51670107FC0120976
:1007AC000AE4FBEB1208F80BBB10F8227FC012090D
:1007BC000AE4FBEB90032B93FF1208FD0BBB10F329
:0107CC00220A
:10040300200308C20312078C0209342000030204EC
:10041300D7E516640660030204D70518E5186402DD
:100423007079F52574092525F8E6FF741A2525F852
:10043300E6B507090525E525B406E980237FC01243
:10044300090AE4F526E5261208F80526E526C394ED
:100453001040F2120934C203C200E4F51812078CEB
:10046300E5256406702E7FC012090AE4F526E52609
:100473009003B393FF1208FD0526E526C3941040AD
:10048300ED12094D7B007A00791A752B06E4FD12F3
:1004930006BEC200E4F518F519803612093D7FC087
:1004A30012090AE4F526E5269003E693FF1208FDF8
:1004B3000526E526C3941040EDE4F52574092525AA
:1004C300F8E6FF741A2525F8A6070525E525B406E1
:0404D300EBE4F5164B
:0104D7002202
:08094500E4F590B2A102088064
:1007CD007FC012090AE4FBEB90032B93FF1208FD87
:1007DD000BBB10F312094D7F067809E4F608DFFC18
:1007ED00D2B6D2A1C203C200E4F50FF519F518C2B5
:0507FD0002C201F51627
:0108020022D3
:10000E007B007A007910752B06E4FD120746E51683
:10001E00640660030201AD30000302018DF5257404
:10002E00092525F8E6FF74102525F8E6B50709051C
:10003E0025E525B406E98028050FE50FB4031B7FDF
:10004E00C012090AE4F525E5251208F80525E5256F
:10005E00C3941040F212094580FBD28CD201C20328
:10006E00E525640660030201249003FD9365097083
:10007E003FA393650A7039A393650B7033A3936501
:10008E000C702DA393650D7027A393650E7021122E
:10009E0006B47FC012090AE4F526E5269003C49340
:1000AE00FF1208FD0526E526C3941040ED020169F6
:1000BE000519E519640170387FC012090AE4F526A6
:1000CE00E52690038093FF1208FD0526E526C394CE
:1000DE001040ED12094DC2B6D203D28CE4F526744F
:1000EE00092525F8E4F60526E526B406F20201C632
:1000FE007FC012090AE4F526E52690039193FF12BC
:10010E0008FD0526E526C3941040ED12094DD200D8
:10011E00E4F5190201C69003FDE4936509704AA344
:10012E0093650A7044A393650B703EA393650C70A0
:10013E0038A393650D7032A393650E702C1206B41E
:10014E007FC012090AE4F526E5269003C493FF1238
:10015E0008FD0526E526C3941040ED12094D120840
:10016E008F12094DE4F516804F7FC012090AE4F58F
:10017E00261208F60526E526C3941040F480347F37
:10018E00C012090AE4F526E5269003D593FF12085E
:10019E00FD0526E526C3941040ED12093480197F23
:1001AE00C012090AE4F5261208F60526E526C394C0
:0B01BE001040F4120934C203E4F516EF
:0101C9002213
:1001CA007590FF758911758AB0758C3CD2AFD2A92A
:1001DA00C28C12088F1208BE7F8012090AE4F52326
:1001EA00E52390033C93FF1208FD0523E523C394FE
:1001FA001040ED7FC012090AE4F523E52390032B92
:10020A0093FF1208FD0523E523C3941040ED7FC92F
:10021A0012090A7F0F12090A120880E4F516300142
:10022A00051209458002D2A11206628F21E52160DA
:10023A00ED300105E4F50880E5AF211205648F224F
:10024A00E52224DD70030202D424F9607724E960F0
:10025A00CD1460CA14600514606480747F8012092A
:10026A000AE4F523E52390033C93FF1208FD0523D6
:10027A00E523C3941040EDE516C394014002151618
:10028A0012093D851624E524C39410500C12090561
:10029A007F201208FD052480EDE4F524E524C395AA
:1002AA0016500C1209057F2A1208FD052480EDE577
:1002BA00162404FF74092516F8A607020228120458
:1002CA00030202281207CD02022812000E02022897
:1002DA00E516C3940650407FC012090AE4F523E5E7
:1002EA00239003A293FF1208FD0523E523C394106C
:1002FA0040ED12093DE4F524E524D39516500C127D
:10030A0009057F2A1208FD052480ED74092516F8CF
:0D031A00A62205160202287516060202280A
:03000B000206FEEC
:1006FE00C0E0C0D0758AB0758C3C0517E517641440
:10070E007031F5170508300312E50864017024C234
:10071E008C758AB0758C3CF5088018E508B4031109
:10072E00C28C750800C201C202758AB0758C3C80FD
:08073E0002D28CD0D0D0E032D1
:030000000204D81F
:0C04D800787FE4F6D8FD75812E02051F28
:1005ED00BB010CE58229F582E5833AF583E02250C3
:1005FD0006E92582F8E622BBFE06E92582F8E2220D
:0D060D00E58229F582E5833AF583E4932226
:10061A00F8BB010DE58229F582E5833AF583E8F016
:10062A00225006E92582C8F622BBFE05E92582C8C2
:02063A00F222AA
:10063C00D083D082F8E4937012740193700DA3A34D
:10064C0093F8740193F5828883E473740293686061
:06065C00EFA3A3A380DF61
:1004E4000201CAE493A3F8E493A34003F68001F263
:1004F40008DFF48029E493A3F85407240CC8C33319
:10050400C4540F4420C8834004F456800146F6DFE7
:10051400E4800B01020408102040809008D2E47E9D
:10052400019360BCA3FF543F30E509541FFEE493DC
:10053400A360010ECF54C025E060A840B8E493A3A3
:10054400FAE493A3F8E493A3C8C582C8CAC583CACE
:10055400F0A3C8C582C8CAC583CADFE9DEE780BE86
:0108E5000012
:00000001FF
