:0900000002015312047ED2A52274
:10000B0002026612052412040C7D01E4FF1204F8AF
:10001B007BFF7A0279111204BE1204F41204B87D2C
:10002B00027F091204F8C203751E0F1204A075B0EB
:10003B00FF12058712048CE4F517208C0712037B43
:10004B008F1A8003751AFFE51AF46057AF1A120264
:10005B00C48F19E51924DD601124F9600824E92403
:10006B00FC5040800A1204D580391200B38034E56D
:10007B0017C39406502A12053DAA17EAD3951750B9
:10008B0014EA2409FF7D021204F8D203751E2A120A
:10009B0004A00A80E6740A2517F8A6190517800331
:1000AB007517061203218092E4F51BE51BC394061A
:1000BB005030740A251BF8E6FF7411251BF8E6B5C2
:1000CB000704051B80E50510E510B403151204F4B5
:1000DB007BFF7A0179DF1204BED28C120597208C3C
:1000EB00FA22E51B640670367D02FF1204F87BFFD3
:1000FB007A0279331204BE1205241204F17BFF7AC3
:10010B000279441204BE120003C2A3E4F51C740A64
:10011B00251BF8E4F6051CE51CB406F280FE120460
:10012B00F47BFF7A0279221204BE1205B11204F19C
:10013B001204B8E4F51C740A251BF8E4F6051CE55B
:10014B001CB406F2E4F51722787FE4F6D8FD75812E
:10015B002002019A02000EE493A3F8E493A3400358
:10016B00F68001F208DFF48029E493A3F854072406
:10017B000CC8C333C4540F4420C8834004F45680C6
:10018B000146F6DFE4800B0102040810204080904A
:10019B000552E47E019360BCA3FF543F30E5095444
:1001AB001FFEE493A360010ECF54C025E060A8406E
:1001BB00B8E493A3FAE493A3F8E493A3C8C582C865
:1001CB00CAC583CAF0A3C8C582C8CAC583CADFE93A
:1001DB00DEE780BE20204B65797061644C6F636BEA
:1001EB0065642120006B65795F636F64653A3078D5
:1001FB0000FEFDFBF770617373776F72643A20201A
:10020B002020202020003D3D3D436F646564204C41
:10021B006F636B3D3D3D00202020202020657272D6
:10022B006F722020202020002020202020207061B1
:10023B007373202020202020002020202020206FDE
:10024B0070656E2020202020200030313233343571
:10025B003637383941424344454600C0E0C083C07D
:10026B0082C0D075D000C001C002C003C004C0055D
:10027B00C006C007758AB0758C3C0518E518641468
:10028B007020F5180509E509B40A1775B0F0758AE1
:10029B00B0758C3C7509007510001204F41204B88B
:1002AB00C28CD007D006D005D004D003D002D00129
:1002BB00D0D0D082D083D0E032EF1203E6031011FE
:1002CB0003001202F01403142103042202F424038A
:1002DB00184103084202F844031C81030C8202FC00
:1002EB00840000031E7E03802A7E0680267E098002
:1002FB00227E23801E7E02801A7E0580167E088059
:10030B0012E4FE800E7E01800A7E0480067E07804A
:10031B00027E2AAF06222092510508E508C394FA03
:10032B00404D20004AD200B201300122E4FAEAC368
:10033B009517503BEA2409FF7D021204F8D203748F
:10034B000A2AF8E62430F51E1204A00A80E0E4FA2B
:10035B00EAC395175019EA2409FF7D021204F8D25B
:10036B0003751E2A1204A00A80E6C200E4F50822D7
:10037B0075B0F0E5B054F064F0604412048C1204D4
:10038B008CE5B054F064F06027E5B064F0FBE4FF5B
:10039B008016EFC39404501BE5B054F064F0600674
:1003AB00E5B0F4FD800D0FEF9001FC93F5B080E20A
:1003BB007FFF22E5B054F0FFBFF0F8EB4DFF227F3B
:1003CB00FF22BB010689828A83E0225002E722BB0F
:1003DB00FE02E32289828A83E49322D083D082F8BF
:1003EB00E4937012740193700DA3A393F8740193AB
:1003FB00F5828883E4737402936860EFA3A3A380F0
:10040B00DF7F0612050B12049B12049B12049B7FC9
:10041B00027E00120565C203751E0C1204A07F023A
:10042B007E00120565C203751E011204A07F647E57
:10043B0000120565C203751E060204A012037B8F12
:10044B001AE51AF4602C7D01E4FF1204F87BFF7AA5
:10045B000179F01204BED203E51AC4540F90025571
:10046B0093F51E1204A0D203E51A540F93F51E1236
:10047B0004A02212053D12048CD2A512048C120585
:10048B003D7FB07E15EF1FAC0670011E4C70F6223F
:10049B00C203751E38A20392A0C2A1851E807F0ADB
:1004AB007E00120565D2A2120565C2A2227BFF7ADD
:1004BB000279001203CDFF6010D203F51E1204A0C7
:1004CB00740129F9E43AFA80EA221204F41204B80E
:1004DB001200037F06780AE4F608DFFCD2A5E4F5E8
:1004EB0010D2A3F517221205247D02E4FFEFBD0104
:1004FB00052480FB800324C0FBC2038B1E0204A0D7
:10050B00E4FEEEC39F5011E4FDFC0DBD00010CBCDD
:10051B0001F8BD3BF50E80EA227D05AC051DEC60B4
:10052B00107E1C7F65EF1FAA0670011E4A60EC80CF
:10053B00F422E4FBC2A57F327E00120565D2A51220
:10054B0005650BBB1EEE2206110605040302010115
:10055B001700C100C10101080000E4FDFCC3ED9FC1
:10056B00EC9E50070DBD00010C80F222D2A57F3C02
:10057B007E00120565C2A512056580F0758911759F
:10058B008AB0758C3CD2AFD2A9C28C22E4F5B012E2
:10059B00053D12048CD2A502048CC2A3120524D2F1
:0F05AB00A312052480F412047E120484D2A52228
:00000001FF
