:10033500FEFDFBF770617373776F72643D202020BB
:1003450020202020002020425920485A20414E4498
:10035500204C5A50200020202020207375636365AF
:100365007373202020200020202020202066616932
:100375006C202020202020002020202020207061BB
:100385007373202020202020002020202020206F93
:1003950070656E2020202020200072657365742012
:1003A50070617373776F7264202000696E70757465
:1003B5003A20202020202020202020007061737307
:1003C500776F7264206368616E67656400496E6962
:1003D500742070617373776F72642E2E2E006572B0
:1003E500726F722C74727920616761696E21006188
:1003F5006761696E202020202020202020202000F9
:1004050061646D696E206D6F646500000000000019
:0704150000080808080808B0
:1008F100C105C102C104C103062A000000000000B5
:0A090100013000C100C10101210016
:0C08D600C2A11208E2D2A11208E2C2A1E5
:0E08E2007FB07E15EF1FAC0670011E4C70F645
:0108F00022E5
:10090C007D05AC051DEC60107E1C7F65EF1FAA06F3
:08091C0070011E4A60EC80F43A
:0109240022B0
:10092500EF1FAA0670011E4A600BE4FDEDC3947D1E
:0509350050EE0D80F7FB
:01093A00229A
:05099300120998D2B426
:05099800000000002238
:0C097B00D2B5D2B4120998C2B502099896
:0C098700C2B5D2B4120998D2B50209988A
:08094F0012097B7FA01208B71A
:08095700C2B5120993C2B422DB
:08000300D2B5120993C2B42228
:1008B7007E08AD07C2B4120998ED30E704D2B580BF
:0E08C70002C2B5D2B4EF25E0FDFFDEE6C2B4FA
:0108D5002200
:10089400E4FFFE7D08D2B5C2B412099330B5054316
:1008A400070180035307FEED146005EF25E0FEFF0A
:0208B400DDE580
:0108B600221F
:0A06CD007BFF7A047910751206FD18
:0206D7008D1183
:1006D9008B138A148915E4FCECC39512502F120967
:1006E9004FE5112CFF1208B7120957AB13AA14A929
:1006F900158C82758300120606FF1208B712095776
:0D0709001209877F147E001209250C80CB99
:0107160022C0
:0207A8008D11B1
:1007AA008B138A148915E4FCECC39512503512098F
:1007BA004FE5112CFF1208B712095712097B7FA1C6
:1007CA001208B7120957120894AB13AA14A9158C68
:1007DA0082758300EF120633C2B41200031209872E
:0307EA000C80C5BB
:0107ED0022E9
:10086500C2A68F807F017E00120876D2A77F017E07
:010875000082
:10087600D3EF9400EE940040147D6E7C00ED1D7065
:0D088600011CED4C70F7EF1F70E61E80E3C3
:010893002242
:05096E00E50B24C6FFAB
:08097300C2A5120865C2A7220B
:07095F00E50D90036C93FF0E
:08096600D2A5120865C2A72208
:10093B007F381209737F0C1209737F061209737FBC
:04094B000102097329
:10057D00EF12065505B51105C91205DD1405F11863
:10058D0005BA2105CE2205E22405F62805BF410551
:10059D00D34205E74405FB4805C48105D88205EC27
:1005AD008406008800000603750C018049750C0255
:1005BD008044750C03803F750C41803A750C0480A6
:1005CD0035750C058030750C06802B750C42802618
:1005DD00750C078021750C08801C750C098017752A
:1005ED000C438012750C2A800DE4F50C8008750CF7
:0805FD00238003750C44AF0CD0
:0106050022D2
:10067B007590F0E59054F064F060441208E21208B3
:10068B00E2E59054F064F06027E59064F0FBE4FF42
:10069B008016EFC39404501BE59054F064F0600691
:1006AB00E590F4FD800D0FEF90033593F59080E20C
:1006BB007F0022E59054F0FFBFF0F8EB4DFF227F57
:0106CB00002E
:0106CC00220B
:0809A600C2A11208E2D2A12255
:0609B6001208D6D2A122B6
:09099D001208D61208DBD2A122D7
:1007EE003005157FC0120973E4FBEB90038E93FF67
:1007FE001209660BBB10F322E53070107FC0120990
:10080E0073E4FBEB1209610BBB10F8227FC01209D7
:10081E0073E4FBEB90033993FF1209660BBB10F3E5
:01082E0022A7
:10041C00200508C2051207EE02099D200203020402
:10042C00F0E530640660030204F00532E532640244
:10043C007079F50C7423250CF8E6FF7434250CF850
:10044C00E6B50709050CE50CB406E980237FC0125C
:10045C000973E4F50DE50D120961050DE50DC39465
:10046C001040F212099DC205C202E4F5321207EEE9
:10047C00E50C6406702E7FC0120973E4F50DE50DD2
:10048C009003C193FF120966050DE50DC39410404E
:10049C00ED1209B67B007A007934751206E4FD1270
:1004AC0006D7C202E4F532F53380361209A67FC0B6
:1004BC00120973E4F50DE50D9003F493FF12096630
:1004CC00050DE50DC3941040EDE4F50C7423250CDB
:1004DC00F8E6FF7434250CF8A607050CE50CB406F9
:0404EC00EBE4F53018
:0104F00022E9
:0809AE00E4F590B2A10208E299
:10082F007FC0120973E4FBEB90033993FF12096643
:10083F000BBB10F31209B67F067823E4F608DFFC32
:10084F00D2B6D2A1C205C202E4F529F533F532C200
:05085F0004C203F530A6
:010864002271
:10000E007B007A00792A751206E4FD1207A8E53006
:10001E00640660030201AD30020302018DF50C741B
:10002E0023250CF8E6FF742A250CF8E6B50709051A
:10003E000CE50CB406E980280529E529B4031B7FDD
:10004E00C0120973E4F50CE50C120961050CE50C00
:10005E00C3941040F21209AE80FBD28CD203C205BB
:10006E00E50C640660030201249004169365237068
:10007E003FA39365247039A39365257033A39365CD
:10008E0026702DA39365277027A3936528702112E0
:10009E0006CD7FC0120973E4F50DE50D9003D293E2
:1000AE00FF120966050DE50DC3941040ED020169BE
:1000BE000533E533640170387FC0120973E4F50D22
:1000CE00E50D90038E93FF120966050DE50DC394A1
:1000DE001040ED1209B6C2B6D205D28CE4F50D74FD
:1000EE0023250CF8E4F6050DE50DB406F20201C663
:1000FE007FC0120973E4F50DE50D90039F93FF1277
:10010E000966050DE50DC3941040ED1209B6D20235
:10011E00E4F5330201C6900416E4936523704AA3F6
:10012E009365247044A3936525703EA39365267052
:10013E0038A39365277032A3936528702C1206CDD1
:10014E007FC0120973E4F50DE50D9003D293FF12F3
:10015E000966050DE50DC3941040ED1209B612099E
:10016E000C1209B6E4F530804F7FC0120973E4F526
:10017E000D12095F050DE50DC3941040F480347F18
:10018E00C0120973E4F50DE50D9003E393FF120918
:10019E0066050DE50DC3941040ED12099D80197F83
:1001AE00C0120973E4F50D12095F050DE50DC39438
:0B01BE001040F412099DC205E4F5306A
:0101C9002213
:100717002005400521E521C394FA403C200039D249
:1007270000B201300118E4FBEBC39530502A7FC0BB
:10073700120973E5162430FF1209660B80EAE4FB01
:10074700EBC3953050127FC01209737F2A120966D6
:080757000B80EDC200E4F52166
:01075F002277
:1001CA007590FF758911758AB0758C3CD2AFD2A92A
:1001DA00C28C12090C12093B7F80120973E4F50ADA
:1001EA00E50A90034A93FF120966050AE50AC394D1
:1001FA001040ED7FC0120973E4F50AE50A9003394D
:10020A0093FF120966050AE50AC3941040ED7FC9F7
:10021A001209737F0F1209731208E2E4F5303003F2
:10022A00051209AE8002D2A112067B8F08E508608A
:10023A00ED300305E4F52280E5AF0812057D8F094C
:10024A00E50924DD70030202E224F970030202DCEC
:10025A0024E8602F146049146072240360030202C8
:10026A00E8E530C39401400215301209A685300B27
:10027A00E50BC3941050A712096E7F201209660578
:10028A000B80ED7FC0120973E4F50BE50BC39410E4
:10029A00508CE50B90040593FF120966050B80EB61
:1002AA00E4F50BE50BC39530501312096E74232540
:1002BA000BF8E62430FF120966050B80E6E53024C8
:1002CA0004FF74232530F8A60702022812041C0230
:1002DA00022812082F02022812000E020228E53014
:1002EA00C3940650407FC0120973E4F50AE50A90E8
:1002FA0003B093FF120966050AE50AC3941040ED9C
:10030A001209A6E4F50BE50BD39530500C12096ED1
:10031A007F2A120966050B80ED74232530F8A60999
:0B032A00053002022875300602022890
:03000B0002076089
:10076000C0E0C0D0758AB0758C3C0531E5316414A9
:100770007031F5310522300512E52264017024C282
:100780008C758AB0758C3CF5228018E522B4031173
:10079000C28C752200C203C204758AB0758C3C807D
:0807A00002D28CD0D0D0E0326F
:030000000204F106
:0C04F100787FE4F6D8FD758139020538EB
:10060600BB010CE58229F582E5833AF583E02250A9
:1006160006E92582F8E622BBFE06E92582F8E222F3
:0D062600E58229F582E5833AF583E493220D
:10063300F8BB010DE58229F582E5833AF583E8F0FD
:10064300225006E92582C8F622BBFE05E92582C8A9
:02065300F22291
:10065500D083D082F8E4937012740193700DA3A334
:1006650093F8740193F5828883E473740293686048
:06067500EFA3A3A380DF48
:1004FD000201CAE493A3F8E493A34003F68001F24A
:10050D0008DFF48029E493A3F85407240CC8C333FF
:10051D00C4540F4420C8834004F456800146F6DFCE
:10052D00E4800B01020408102040809008F1E47E65
:10053D00019360BCA3FF543F30E509541FFEE493C3
:10054D00A360010ECF54C025E060A840B8E493A38A
:10055D00FAE493A3F8E493A3C8C582C8CAC583CAB5
:10056D00F0A3C8C582C8CAC583CADFE9DEE780BE6D
:01090B0000EB
:00000001FF
